:0400000048EF00F0D5
:10000800FACF01F0FBCF02F0E9CF03F0EACF04F01A
:10001800E1CF05F0E2CF06F0D9CF07F0DACF08F04C
:10002800F3CF09F0F4CF0AF0F6CF0BF0F7CF0CF0CE
:10003800F8CF0DF0F5CF0EF09EAA01D001D007D071
:100048009DAA01D001D003D0AECFB8F000D00EC029
:10005800F5FF0DC0F8FF0CC0F7FF0BC0F6FF0AC094
:10006800F4FF09C0F3FF08C0DAFF07C0D9FF06C0D4
:10007800E2FF05C0E1FF04C0EAFF03C0E9FF02C0D8
:0C008800FBFF01C0FAFF1100A7EF19F008
:1010000000803F72313FFE753E58633D951D3CC5E3
:10101000AE3A79213994803793A7355615340000BC
:101020000000803FF0FFBEE2A93E8376BEAE2B3EBD
:101030003CC3BDD2133D78D3BB0046EC18F09BEC0B
:1010400019F077EC19F00001976F000E0F6E000198
:101050009751B8EC19F00001986F00019829D8B4A5
:1010600001D001D012D00001000E116E0001A90EB6
:10107000106E0001976F000E0F6E00019751B8ECD3
:1010800019F0126E6CEC0BF00FD00001000E116E17
:101090000001A90E106E0001976F010E126E000183
:1010A00097516CEC0BF000D00001976F000E00011F
:1010B0000001A26F000197510001976F100E0F6E93
:1010C00000019751B8EC19F000010001A86F000170
:1010D0000001A805D8B401D001D009D00001976F54
:1010E000000E00010001A86F0001975100D0D90E39
:1010F00000010001A76FDA0E0001A66F000E0001CB
:101100000001A16F000E0001A06F0001976F000E9B
:1011100000010001996F00019751D58ED59CD59A99
:10112000D596D580D582D58400010001A751D76E10
:10113000A6C0D6FF3F0ECD16300ECD12CD82CD907B
:1011400000D0000E4D6EC80E4C6E78EC16F04CC000
:101150009AF04DC09BF04EC09CF00001976F410E7D
:10116000476E000197519AC048F09BC049F09CC05F
:101170004AF0D6EC14F047C09DF048C09EF049C03C
:101180009FF09DC088F09EC089F09FC08AF062ECFD
:1011900014F088C0A3F089C0A4F08AC0A5F00001B3
:1011A0000001B851D8B401D001D04BD2B0D0AFD0EB
:1011B0000001000E116E0001A90E106E0001976F64
:1011C000060E126E000197516CEC0BF00001976F48
:1011D000000E0F6E000197510001986F310E106ED6
:1011E000000198518BEC19F02CD20001000E116E09
:1011F0000001A90E106E0001976F020E126E000121
:1012000097516CEC0BF00001976F000E0F6E000110
:1012100097510001986F320E106E000198518BECBF
:1012200019F00FD20001000E116E0001A90E106E10
:101230000001976F010E126E000197516CEC0BF0DC
:101240000001976F000E0F6E000197510001986F1B
:10125000330E106E000198518BEC19F0F2D10001A1
:10126000000E116E0001A90E106E0001976F050EA1
:10127000126E000197516CEC0BF00001976F000E9D
:101280000F6E000197510001986F340E106E00012F
:1012900098518BEC19F0D5D10001000E116E0001B0
:1012A000A90E106E0001976F040E126E0001975187
:1012B0006CEC0BF00001976F000E0F6E0001975160
:1012C0000001986F350E106E000198518BEC19F0EB
:1012D000B8D10001000E116E0001A90E106E0001C0
:1012E000976F030E126E000197516CEC0BF000012A
:1012F000976F000E0F6E000197510001986F360E28
:10130000106E000198518BEC19F09BD19AD100011D
:101310000001B851350AD8B44BD7030AD8B465D701
:10132000010AD8B47FD70F0AD8B499D7010AD8B424
:10133000B3D7780AD8B4CDD784D183D182D18A9259
:101340008A948A968A988A9A00010001B851310AD3
:10135000D8A401D001D009D00001976F010E00017F
:101360000001A86F0001975100D000010001B851A1
:10137000320AD8A401D001D009D00001976F020E23
:1013800000010001A86F0001975100D00001000189
:10139000B851330AD8A401D001D063D180B201D0B2
:1013A00001D05FD10001976F030E00010001A86F0B
:1013B0000001975156D155D18A828A948A968A889B
:1013C0008A9A000E3C6E000E3D6EC00E3E6EB2C09C
:1013D00039F0B3C03AF0B4C03BF0D5EC0DF039C0F1
:1013E00047F03AC048F03BC049F0A3C04AF0A4C05F
:1013F0004BF0A5C04CF027EC17F0D8A001D001D0DD
:1014000006D080A201D001D002D08A8A17D0A3C012
:1014100047F0A4C048F0A5C049F0B2C04AF0B3C03C
:101420004BF0B4C04CF027EC17F0D8B001D001D08D
:1014300002D000F003D08A9A01D000D00001000150
:10144000B851340AD8B401D001D005D080B401D04D
:1014500001D00AD000D00001976F000E00010001FA
:10146000A86F00019751FDD000010001B851330A67
:10147000D8A401D001D00DD080B201D001D009D0C4
:101480000001976F030E00010001A86F0001975142
:10149000E8D000010001B851320AD8A401D001D02F
:1014A000E0D080A401D001D0DCD00001976F020E03
:1014B00000010001A86F00019751D3D0D2D0D1D044
:1014C000D0D08A928A848A968A888A9A00010001FA
:1014D000B851340AD8B401D001D005D080B401D0BD
:1014E00001D00AD000D00001976F000E000100016A
:1014F000A86F00019751B5D000010001B851330A1F
:10150000D8A401D001D00DD080B201D001D009D033
:101510000001976F030E00010001A86F00019751B1
:10152000A0D000010001B851310AD8A401D001D0E7
:1015300098D080A401D001D094D00001976F010E03
:1015400000010001A86F000197518BD08AD089D08B
:1015500088D08A928A948A868A988A9A80A201D0B0
:1015600001D001D0CD809EA001D001D02AD00001B1
:101570000001A151800A7F0F2D0ED8B4A05DD8A024
:1015800001D001D011D0CD90000E00010001A16F5B
:10159000000E0001A06F0001976F000E0001000116
:1015A000A86F0001975105D000010001A04BA12BAD
:1015B00000D000010001A751CF6EA6C0CEFF9E90C3
:1015C00000D000010001B851340AD8A401D001D0E4
:1015D0000AD00001976F000E00010001A86F000102
:1015E0009751CD903ED000010001B851320AD8A4E5
:1015F00001D001D00DD080A401D001D009D00001CC
:10160000976F020E00010001A86F0001975129D0C9
:1016100000010001B851310AD8A401D001D021D075
:1016200080A401D001D01DD00001976F010E0001F0
:101630000001A86F0001975114D013D012D011D01F
:1016400010D000010001A851000AD8B478D6010AD0
:10165000D8B4B2D6030AD8B434D7010AD8B479D7EB
:1016600000D000010001A85100010001A219D8B466
:1016700001D001D00BD00001976F100E0F6E00014A
:101680009751A8C010F08BEC19F000D0A8C0A2F0C0
:10169000F2A401D001D014D0A8C060F0B5C061F0B0
:1016A000A3C062F0A4C063F0A5C064F0B1EC15F073
:1016B000F29400010001A751D76EA6C0D6FF00D05A
:1016C0000001976F000E00010001B86F00019751F3
:1016D00038D537D548EF00F021D120EE0CF010506E
:1016E000D9261150DA2212C0DFFF20EE06F010508A
:1016F000D9261150DA22000EDE6E000EDE6E410E8B
:10170000DD6EDD5220EE03F01050D9261150DA22A2
:10171000000EDE6EC00EDE6E400EDD6EDD5220EE7F
:1017200009F01050D9261150DA22000EDE6EBC0EE0
:10173000DE6E410EDD6EDD5205D120EE0CF0105054
:10174000D9261150DA2212C0DFFF20EE06F0105029
:10175000D9261150DA22000EDE6E000EDE6E410E2A
:10176000DD6EDD5220EE03F01050D9261150DA2242
:10177000000EDE6ED00EDE6E400EDD6EDD5220EE0F
:1017800009F01050D9261150DA22000EDE6EC80E74
:10179000DE6E410EDD6EDD52D5D020EE0CF0105025
:1017A000D9261150DA2212C0DFFF20EE06F01050C9
:1017B000D9261150DA229A0EDE6EF90EDE6E400E38
:1017C000DD6EDD5220EE03F01050D9261150DA22E2
:1017D000000EDE6EB00EDE6E400EDD6EDD5220EECF
:1017E00009F01050D9261150DA22000EDE6ED00E0C
:1017F000DE6E410EDD6EDD52A5D020EE0CF01050F5
:10180000D9261150DA2212C0DFFF20EE06F0105068
:10181000D9261150DA22000EDE6E080EDE6E410E61
:10182000DD6EDD5220EE03F01050D9261150DA2281
:10183000000EDE6ED00EDE6E400EDD6EDD5220EE4E
:1018400009F01050D9261150DA22000EDE6EDC0E9F
:10185000DE6E410EDD6EDD5275D020EE0CF01050C4
:10186000D9261150DA2212C0DFFF20EE06F0105008
:10187000D9261150DA22CD0EDE6EFC0EDE6E400E41
:10188000DD6EDD5220EE03F01050D9261150DA2221
:10189000000EDE6EC00EDE6E400EDD6EDD5220EEFE
:1018A00009F01050D9261150DA22000EDE6EB80E63
:1018B000DE6E410EDD6EDD5245D020EE0CF0105094
:1018C000D9261150DA2212C0DFFF20EE06F01050A8
:1018D000D9261150DA22000EDE6EE00EDE6E400ECA
:1018E000DD6EDD5220EE03F01050D9261150DA22C1
:1018F000000EDE6EC00EDE6E400EDD6EDD5220EE9E
:1019000009F01050D9261150DA22000EDE6EF00ECA
:10191000DE6E410EDD6EDD5215D014D01250010A7C
:10192000D8B4DBD6030AD8B408D7010AD8B435D75F
:10193000070AD8B462D7010AD8B48FD7030AD8B43B
:10194000BCD700D012007F0E000100016F1500010E
:101950006E1100016D11D8A401D001D00ED0000E7F
:10196000000100016D6F800E000100016E6F3F0EDF
:10197000000100016F6F18D117D1720E476E310E42
:10198000486E440E496E6DC04AF06EC04BF06FC099
:101990004CF027EC17F0D8B001D001D015D0000ED4
:1019A00000010001B76F220E0001B66FFF0E0001AB
:1019B00000016D6F7F0E000100016E6F7F0E000150
:1019C00000016F6FF1D0F0D06DC047F06EC048F0ED
:1019D0006FC049F0490E4A6E3A0E4B6EC40E4C6E03
:1019E00027EC17F0D8B001D001D015D0000E0001BF
:1019F0000001B76F220E0001B66F000E000100015A
:101A00006D6F000E000100016E6F000E00010001FD
:101A10006F6FCAD0C9D0000100016F51800A800FDA
:101A200007E1000E00016E5D03E1000E00016D5D37
:101A3000D8A001D002D0010E01D0000E000100019B
:101A4000756F000100017551D8B401D001D00FD0DD
:101A50006DC00FF06EC010F06FC011F062EC19F0A5
:101A60000FC06DF010C06EF011C06FF000D000011B
:101A7000000E3A6E00016D0E396EAA0E3B6EB80E66
:101A80003C6E3F0E3D6EB6EC18F06DC060F06EC05F
:101A900061F06FC062F02AEC12F060C070F061C0BB
:101AA00071F062C072F070C039F071C03AF072C06B
:101AB0003BF0C4EC12F039C073F03AC074F000018E
:101AC000000E4E6E00016D0E4D6E73C017F074C0A7
:101AD00018F071EC18F017C04FF018C050F019C092
:101AE00051F097EC18F06DC047F06EC048F06FC031
:101AF00049F0100E4B6E000E4A6E000E4D6E090E30
:101B00004C6E45EC15F047C065F048C066F049C022
:101B100067F073C068F074C069F0FDEC0FF065C049
:101B20006DF066C06EF067C06FF000010001755186
:101B3000D8B401D001D032D0FF0E000100016D19E0
:101B40007F0ED8B46E197F0ED8B46F19D8A401D007
:101B500001D00ED0000E000100016D6F000E0001DB
:101B600000016E6F000E000100016F6F1DD01CD0D0
:101B7000000E176E800E186E3F0E196E6DC01AF0B3
:101B80006EC01BF06FC01CF05CEC13F017C06DF062
:101B900018C06EF019C06FF007D006D06DC06DF0A0
:101BA0006EC06EF06FC06FF012000F0E3F6E39C046
:101BB00040F03AC041F03BC042F03F28436E04D0B1
:101BC000D890423241324032432EFAD74050466ECE
:101BD0000F0E3F6E3CC040F03DC041F03EC042F0B1
:101BE0003F28436E04D0D890423241324032432ED7
:101BF000FAD74050456E4650D8B401D001D00FD02E
:101C00004550466001D001D011D04650000845240F
:101C10003F6E190E3F5CD8A001D001D007D03CC068
:101C200039F03DC03AF03EC03BF0DBD04550D8B46F
:101C300001D001D00FD04650456001D001D011D065
:101C40004550000846243F6E190E3F5CD8A001D0D5
:101C500001D007D039C039F03AC03AF03BC03BF070
:101C6000C0D03F6E060E446E3F503BAE01D001D057
:101C700002D0448E00D03EAE01D001D001D0448CC1
:101C80003A8EFF0E3916FF0E3A16000E3B163D8EA9
:101C9000FF0E3C16FF0E3D16000E3E1645504660E8
:101CA00001D001D023D000D0D8903C363D363E360E
:101CB000450645504618D8B401D001D010D044068E
:101CC0004450070BD8A401D001D0EED708D007D0DC
:101CD00006D0D8903B323A323932462A00D04550AD
:101CE000466201D001D0F5D729D028D046504560B2
:101CF00001D001D023D000D0D89039363A363B36C7
:101D0000460645504618D8B401D001D010D044063C
:101D10004450070BD8A401D001D0EED708D007D08B
:101D200006D0D8903E323D323C32452A00D0455054
:101D3000466201D001D0F5D701D000D044AE01D029
:101D400001D00CD0FF0E391AFF0E3A1AFF0E3B1AC3
:101D5000010E3926000E3A22000E3B2244AC01D07F
:101D600001D00DD0FF0E3C1AFF0E3D1AFF0E3E1A99
:101D7000010E3C26000E3D22000E3E2200D03F6E9A
:101D8000000E446E3F5039503C263A503D223B50A5
:101D90003E223EAE01D001D011D0FF0E3C1AFF0E04
:101DA0003D1AFF0E3E1A010E3C26000E3D22000E8B
:101DB0003E223F6E010E446E3F5000D03CC00FF0FB
:101DC0003DC010F03EC011F046C012F044C013F008
:101DD000EBEC13F00FC039F010C03AF011C03BF03B
:101DE00000D0120000017C6F000E00010001836F23
:101DF00000017C517F0E0001000178150001771170
:101E000000017611D8A401D001D027D0000E476E72
:101E1000000E486E000E496E79C04AF07AC04BF051
:101E20007BC04CF027EC17F0D8A001D001D007D030
:101E3000000E00010001B76F210E0001B66F000E09
:101E400000010001766F000E00010001776F000EA7
:101E500000010001786FD0D0CFD07F0E00010001CB
:101E60007B1500017A1100017911D8A401D001D0AD
:101E70000ED0000E00010001766F800E00010001FF
:101E8000776F3F0E00010001786FB6D0B5D000012A
:101E900000017851800A800F07E1000E0001775D94
:101EA00003E1000E0001765DD8B001D001D057D01B
:101EB00079C039F07AC03AF07BC03BF0C4EC12F044
:101EC00039C084F03AC085F03BC086F03CC087F052
:101ED00084C017F085C018F086C019F087C01AF0CA
:101EE0000FEC18F0000100017B51191809E1000105
:101EF00000017A51181804E1000100017951171806
:101F0000D8B401D001D015D0000E00010001B76F88
:101F1000210E0001B66F000E00010001766F000E69
:101F200000010001776F000E00010001786F64D09E
:101F300063D0000100018451010B00010001836F97
:101F400076C00FF077C010F078C011F062EC19F095
:101F50000FC076F010C077F011C078F000D076C0D6
:101F600065F077C066F078C067F0CFEC10F065C020
:101F70007DF066C07EF067C07FF07DC028F07EC037
:101F800029F07FC02AF079C02BF07AC02CF07BC0FA
:101F90002DF08BEC11F028C080F029C081F02AC010
:101FA00082F080C06DF081C06EF082C06FF0A3EC53
:101FB0000CF06DC076F06EC077F06FC078F0000165
:101FC00000018351D8B401D001D010D076C00FF0F9
:101FD00077C010F078C011F062EC19F00FC076F005
:101FE00010C077F011C078F007D006D076C076F038
:101FF00077C077F078C078F012007F0E0001000102
:1020000067150001661100016511D8A401D001D047
:102010000ED0000E00010001656F000E00010001EE
:10202000666F000E00010001676FB8D0B7D00001E5
:10203000000167517F0B00016A6FD89000016A357B
:1020400000016B6F00016C6B00016C3700016B517C
:1020500000010001682700016C51000100016923A3
:10206000000100016635E836010B00016A6F0001CE
:102070006A51000100016827000E00016923000178
:10208000000169AF01D001D016D0000E000100019F
:10209000B76F220E0001B66F000E00010001656FE0
:1020A000000E00010001666F000E00010001676F65
:1020B00075D074D06CD0000100016951800A7F0F87
:1020C000000ED8B4685DD8A001D001D036D0000E83
:1020D00000010001B76F220E0001B66F0001000180
:1020E0006751800A800F07E1000E0001665D03E181
:1020F000000E0001655DD8B001D001D00FD0FF0EF9
:1021000000010001656F7F0E00010001666FFF0E88
:1021100000010001676F42D041D039D0FF0E0001AD
:102120000001656F7F0E00010001666F7F0E0001E8
:102130000001676F33D032D02AD000010001693529
:102140000001693100016B6F00010001683100017D
:102150006A6F00010001675100016A19800B6A195A
:1021600000010001676F68C06AF0010E00016A1784
:1021700000016A336A3300010001665100016A19E7
:102180007F0B6A1900010001666F01D000D065C0A5
:1021900065F066C066F067C067F000D0120000010D
:1021A00000016751800A800F07E1000E0001665DA3
:1021B00003E1000E0001655DD8B001D001D015D05B
:1021C000000E00010001B76F210E0001B66F000E76
:1021D00000010001656F000E00010001666F000E36
:1021E00000010001676F96D095D07F0E00010001BD
:1021F00067150001661100016511D8A401D001D056
:1022000015D0000E00010001B76F220E0001B66F5D
:10221000000E00010001656F000E00010001666FF5
:10222000000E00010001676F75D074D0000E2B6E98
:10223000000E2C6E400E2D6E0001000E136E00017C
:10224000680E126E65C00FF066C010F067C011F026
:1022500079EC17F00FC028F010C029F011C02AF057
:102260008BEC11F028C039F029C03AF02AC03BF0BD
:10227000000E3C6E800E3D6EBF0E3E6ED5EC0DF036
:1022800039C065F03AC066F03BC067F0000100015C
:102290006807D8A0690765C047F066C048F067C006
:1022A00049F0100E4B6E1E0E4A6E000E4D6E080E5B
:1022B0004C6E45EC15F047C065F048C066F049C06B
:1022C00067F0720E2B6E310E2C6E3F0E2D6E68C0B5
:1022D00017F069C018F071EC18F017C028F018C09A
:1022E00029F019C02AF08BEC11F028C039F029C070
:1022F0003AF02AC03BF065C03CF066C03DF067C0D4
:102300003EF0D5EC0DF039C065F03AC066F03BC048
:1023100067F000D012000F0E2E6E28C02FF029C0DB
:1023200030F02AC031F02E28326E04D0D8903132ED
:1023300030322F32322EFAD72F50336E336601D01F
:1023400001D008D0000E286E000E296E000E2A6EF5
:1023500080D07FD00F0E2E6E2BC02FF02CC030F00F
:102360002DC031F02E28326E04D0D8903132303268
:102370002F32322EFAD72F50386E386601D001D066
:1023800008D0000E286E000E296E000E2A6E61D055
:1023900060D038507B0F33262AC038F02D50381AC1
:1023A000800E3816298E2C8EFF0E2B16FF0E2C1643
:1023B000000E2D16000E346E000E356E000E366EB9
:1023C0002E6E070E376E2E5000D028A001D001D0FF
:1023D00007D02B5034262C5035222D50362200D0D9
:1023E000D8902A3229322832D8902B362C362D36E6
:1023F000372EEBD700D02E6E090E376E2E5000D040
:1024000028A001D001D007D02B5034262C503522E3
:102410002D50362200D0D8902A3229322832D89036
:10242000363235323432372EEBD700D034C00FF08D
:1024300035C010F036C011F033C012F038C013F0C0
:10244000EBEC13F00FC028F010C029F011C02AF0F7
:1024500000D0120060C00FF061C010F062C011F037
:102460000001000E136E0001660E126E79EC17F07B
:102470000001000167AF01D001D02DD000010001A3
:102480006251800A800F07E1000E0001615D03E1E7
:10249000000E0001605DD8B001D001D00ED0000E5A
:1024A00000010001606F800E00010001616FBF0E2E
:1024B00000010001626F67D066D0000E00010001CC
:1024C000606F000E00010001616F000E000100014D
:1024D000626F59D058D0150E00010001665D000EE4
:1024E00000016759D8A001D001D007D060C060F0CA
:1024F00061C061F062C062F046D060C039F061C076
:102500003AF062C03BF0C4EC12F039C048F03AC077
:1025100049F03BC04AF03CC04BF0C5EC17F048C056
:1025200063F049C064F04AC065F060C047F061C024
:1025300048F062C049F063C04AF064C04BF065C027
:102540004CF027EC17F0D8B001D001D016D063C002
:1025500039F064C03AF065C03BF0000E3C6E800E6E
:102560003D6EBF0E3E6ED5EC0DF039C060F03AC046
:1025700061F03BC062F007D006D063C060F064C079
:1025800061F065C062F012000F0E3D6E39C03EF082
:102590003AC03FF03BC040F03D28416E04D0D89097
:1025A00040323F323E32412EFAD73E50476E4766A8
:1025B00001D001D00AD0000E396E000E3A6E000E26
:1025C0003B6E000E3C6E77D076D0170E3D6E39C054
:1025D0003EF03AC03FF03BC040F03D28416E04D091
:1025E000D89040323F323E32412EFAD73E50426EB2
:1025F0003A8EFF0E3916FF0E3A16000E3B16395072
:10260000436E3A50446E3B50456E466A8E0E475EAE
:1026100047AE01D001D01BD04750800A8F0FD8B0F1
:1026200001D001D00BD0000E396E000E3A6E000EB4
:102630003B6E000E3C6E3FD03ED000D0D89046326C
:10264000453244324332473EF9D71ED01DD0170ED3
:10265000476401D001D012D0000E396E000E3A6EE0
:10266000000E3B6E000E3C6E26D025D007D0D890D1
:102670004336443645364636470600D0476601D0D5
:1026800001D0F5D701D000D04250D8B401D001D04C
:1026900009D0461E451E441E436C000E44224522AE
:1026A000462200D043C039F044C03AF045C03BF068
:1026B00046C03CF000D012000F0E1D6E17C01EF079
:1026C00018C01FF019C020F01D28216E04D0D8902A
:1026D00020321F321E32212EFAD71E50266E266659
:1026E00001D001D008D0000E176E000E186E000E3B
:1026F000196E70D06FD00F0E1D6E1AC01EF01BC069
:102700001FF01CC020F01D28216E04D0D89020326C
:102710001F321E32212EFAD71E50276E276601D097
:1027200001D008D0000E176E000E186E000E196E44
:1027300051D050D0000E236E000E246E000E256E78
:102740002750890F265E19C027F01C50271A800ECB
:102750002716188EFF0E1716FF0E1816000E1916E4
:102760001B8EFF0E1A16FF0E1B16000E1C161D6E7A
:10277000180E226E1D50D8902336243625361A5056
:10278000175C1B5018581C501958D8A001D001D004
:1027900007D01A50175E1B50185A1C50195A238024
:1027A000D890173618361936222EE5D700D023C018
:1027B0000FF024C010F025C011F026C012F027C081
:1027C00013F0EBEC13F00FC017F010C018F011C0AD
:1027D00019F000D012001250D8B401D001D008D0A6
:1027E0000F5010101110D8A401D001D010D000D07B
:1027F000000E0F6E000E106E000E116E62D061D0D2
:1028000006D0122AD890113210320F3200D0000EAA
:102810000F14146E000E1014156EFE0E1114166EA9
:10282000145015101610D8A401D001D0EAD70DD03D
:102830000CD0122A010E0F26000E1022000E1122BB
:10284000D890113210320F3200D0000E0F14146ED7
:10285000000E1014156EFF0E1114166E1450151084
:102860001610D8A401D001D0E4D707D006D01206A4
:10287000D8900F361036113600D010AE01D001D0EE
:10288000F6D712B001D001D002D0109E00D0D8905F
:1028900012321250166E156A146A14500F12155027
:1028A0001012165011121350D8B401D001D002D01A
:1028B000118E00D00FC00FF010C010F011C011F039
:1028C00000D01200000E1A6E7A0E1B6E440E1C6EA3
:1028D00088C017F089C018F08AC019F05CEC13F0BA
:1028E00017C065F018C066F019C067F0CFEC10F0A3
:1028F00065C08EF066C08FF067C090F0CD0E3C6E64
:102900005B0E3D6E3B0E3E6E190E2B6E960E2C6EC0
:10291000390E2D6E8EC028F08FC029F090C02AF09D
:102920008BEC11F028C039F029C03AF02AC03BF0F6
:10293000D5EC0DF039C091F03AC092F03BC093F065
:10294000000E00010001796F800E000100017A6F16
:10295000BF0E000100017B6F91C076F092C077F04E
:1029600093C078F0F2EC0EF076C094F077C095F05A
:1029700078C096F094C039F095C03AF096C03BF01C
:10298000940E3C6E880E3D6EC30E3E6ED5EC0DF07F
:1029900039C08BF03AC08CF03BC08DF08BC088F012
:1029A0008CC089F08DC08AF000D012004750410AD7
:1029B000D8A401D001D037D0000E3C6E800E3D6E01
:1029C000BF0E3E6E48C01AF049C01BF04AC01CF052
:1029D000000E176E800E186E440E196E5CEC13F02C
:1029E00017C039F018C03AF019C03BF0D5EC0DF023
:1029F00039C04BF03AC04CF03BC04DF0000E176EA2
:102A00007A0E186E440E196E4BC01AF04CC01BF0B3
:102A10004DC01CF05CEC13F017C04EF018C04FF026
:102A200019C050F02AD04750420AD8A401D001D092
:102A300024D0000E2B6EA00E2C6E400E2D6E48C0C2
:102A400028F049C029F04AC02AF08BEC11F028C0C8
:102A500017F029C018F02AC019F02B0E1A6E240E98
:102A60001B6E400E1C6E5CEC13F017C04EF018C0CD
:102A70004FF019C050F001D000D04EC047F04FC009
:102A800048F050C049F000D012004C50030DF350F4
:102A90004A240001606FE86AF3BEE8684B20000139
:102AA000616F60C0F6FF61C0F7FF0900F5CF62F00B
:102AB0000900F5CF63F00900F5CF64F062C04EF075
:102AC00063C04FF064C050F03FD04EC02BF04FC0F9
:102AD0002CF050C02DF047C028F048C029F049C064
:102AE0002AF08BEC11F028C039F029C03AF02AC046
:102AF0003BF04C06D8A04D064C50030DF3504A2431
:102B00000001606FE86AF3BEE8684B200001616F66
:102B100060C0F6FF61C0F7FF0900F5CF62F0090061
:102B2000F5CF63F00900F5CF64F062C03CF063C0FC
:102B30003DF064C03EF0D5EC0DF039C04EF03AC027
:102B40004FF03BC050F000D04D504C10D8A401D0F5
:102B500001D0BBD74EC047F04FC048F050C049F03D
:102B6000120060C051F0B0EC19F081CF51F0B0EC20
:102B700019F080CF51F0B0EC19F00001656F630ED1
:102B8000516E00016551B0EC19F0000E2B6E200E55
:102B90002C6E410E2D6E62C028F063C029F064C017
:102BA0002AF08BEC11F028C039F029C03AF02AC085
:102BB0003BF0C4EC12F039C048F03AC049F0000EC6
:102BC0004B6E0A0E4A6E1AEC16F04850516EB0EC7D
:102BD00019F0000E2B6E200E2C6E410E2D6E62C071
:102BE00028F063C029F064C02AF08BEC11F028C0F3
:102BF00039F029C03AF02AC03BF0C4EC12F039C0D9
:102C000048F03AC049F0000E4B6E0A0E4A6ED3EC03
:102C100016F04850516EB0EC19F061C051F0B0ECB4
:102C200019F00001656F0A0E516E00016551B0EC9C
:102C300019F012004C6E000E4E6E4C504BAE01D08F
:102C400001D009D04A6C4B1ED8B04B2A4C6E010EF5
:102C50004E6E4C5000D049AE01D001D007D0486C28
:102C6000491ED8B0492A010E4E1A00D0000E506EEF
:102C7000000E4F6E4B504A10D8B401D001D028D06E
:102C80004C6E010E4D6E4C5005D0D8904A364B36E6
:102C90004D2A00D04BAE01D001D0F7D701D000D0E3
:102CA000D8904F3650364A50485C4B504958D8A0BF
:102CB00001D001D006D04A50485E4B50495A4F804F
:102CC00000D0D8904B324A324D2EEAD701D000D0F6
:102CD0004E50D8B401D001D005D04F6C501ED8B0A2
:102CE000502A00D04FC048F050C049F000D0120028
:102CF000000E00010001616F000E00010001626F13
:102D0000000E00010001636F4F6E000E0001000114
:102D1000606F4F501AD00001000E486E0001610E26
:102D2000476E2FEC19F00FC017F010C018F04BECE5
:102D300019F017C049F018C04AF019C04BF0F4EC74
:102D400018F000010001602B00D00001000160516B
:102D50004F6E506A5050800A516E4C504F5C4D502F
:102D6000800A5158D8A001D001D0D5D700D0000199
:102D7000000E296E0001610E286E4CC017F04DC088
:102D800018F071EC18F017C02AF018C02BF019C019
:102D90002CF0D5EC18F061C04CF062C04DF063C06F
:102DA0004EF000D012004C6E000E4E6E4C5049AEEC
:102DB00001D001D009D0486C491ED8B0492A4C6EC8
:102DC000010E4E6E4C5000D04BAE01D001D005D05C
:102DD0004A6C4B1ED8B04B2A00D04B504A10D8B486
:102DE00001D001D024D04C6E010E4D6E4C5005D058
:102DF000D8904A364B364D2A00D04BAE01D001D088
:102E0000F7D701D000D04A50485C4B504958D8A061
:102E100001D001D005D04A50485E4B50495A00D0ED
:102E2000D8904B324A324D2EEED701D000D04E50C2
:102E3000D8B401D001D005D0486C491ED8B0492A79
:102E400000D048C048F049C049F000D0120049AE57
:102E500001D001D017D047C04DF048C04EF049C056
:102E60004FF04D1E4E1E4F1E4D2A000E4E224F2279
:102E7000000E4D24476E000E4E20486E800E4F20EF
:102E8000496E00D04CAE01D001D017D04AC04DF0F1
:102E90004BC04EF04CC04FF04D1E4E1E4F1E4D2AE3
:102EA000000E4E224F22000E4D244A6E000E4E2080
:102EB0004B6E800E4F204C6E00D0000E471A000E55
:102EC000481A800E491A000E4A1A000E4B1A800E3C
:102ED0004C1A4A50475C4B5048584C504958D8B04F
:102EE00001D001D002D0D89003D0D88001D000D03A
:102EF00012007F0E111410100F10D8A401D001D0B1
:102F000010D012C0D9FF13C0DAFF000EDE6E000E23
:102F1000DD6E000E0F6E000E106E000E116E34D0BE
:102F200033D011507F0B146ED8901434156E166A7E
:102F3000163612C0D9FF13C0DAFF15C0DEFF16C067
:102F4000DDFF1034E836010B146E145012C0D9FFA7
:102F500013C0DAFFDE12000EDD1212C0D9FF13C05B
:102F6000DAFF820EDE26FF0EDD221180118211842F
:102F700011861188118A119C109E0FC00FF010C08D
:102F800010F011C011F000D012004C6E000E516E06
:102F90004C504C6E8E0E506E4C504BAE01D001D04A
:102FA00015D04B1E4A1E491E486C000E49224A226B
:102FB0004B224C6E010E516E4C5008D007D0D89069
:102FC0004B324A3249324832502A00D0000E48145F
:102FD0004C6E000E49144D6E000E4A144E6EFF0EDC
:102FE0004B144F6E4F504C104D104E10D8A401D0C2
:102FF00001D0E5D700D048C00FF049C010F04AC05A
:1030000011F050C012F051C013F0EBEC13F00FC0F0
:1030100048F010C049F011C04AF000D012001B6EF9
:103020008E0E1F6E1B5007D0D8901A3219321832EC
:1030300017321F2A00D0000E17141B6E000E181432
:103040001C6E000E19141D6EFF0E1A141E6E1E50FB
:103050001B101C101D10D8A401D001D0E5D700D042
:1030600017C00FF018C010F019C011F01FC012F0F7
:103070001B6E000E136E1B50EBEC13F00FC017F01D
:1030800010C018F011C019F000D01200000E936E9D
:10309000000E8A6E0F010F0139930F010F01399550
:1030A0000F010F0139970F010F0139990F010F011E
:1030B000399B949C948E0F010F013A9F000E0F01D3
:1030C0000F01386F92800F010F0138819282928434
:1030D0000F010F0138930F010F013895F28CF28E1A
:1030E00012001A6E000E1B6E1A5018AE01D001D0DD
:1030F00009D0176C181ED8B0182A1A6E010E1B6E54
:103100001A5000D017C00FF018C010F0116A1A6ED4
:103110008E0E126E1A501BC013F0EBEC13F00FC0A2
:1031200017F010C018F011C019F000D012004DC0F7
:10313000D9FF4EC0DAFFDECF47F0DECF48F0DDCF5B
:1031400049F04FC04AF050C04BF051C04CF013EC66
:1031500019F04DC0D9FF4EC0DAFF47C0DEFF48C0AE
:10316000DEFF49C0DDFFDD5200D0120039C0D9FFBB
:103170003AC0DAFFDECF28F0DECF29F0DDCF2AF02B
:103180003BC02BF03CC02CF03DC02DF08BEC11F07F
:1031900039C0D9FF3AC0DAFF28C0DEFF29C0DEFF00
:1031A0002AC0DDFFDD5200D0120028C0D9FF29C09F
:1031B000DAFFDECF17F0DECF18F0DDCF19F02AC02E
:1031C0001AF02BC01BF02CC01CF05CEC13F028C0D4
:1031D000D9FF29C0DAFF17C0DEFF18C0DEFF19C013
:1031E000DDFFDD5200D0120047C0D9FF48C0DAFF32
:1031F000DECF39F0DECF3AF0DDCF3BF049C03CF016
:103200004AC03DF04BC03EF0D5EC0DF047C0D9FFB1
:1032100048C0DAFF39C0DEFF3AC0DEFF3BC0DDFF49
:10322000DD5200D01200000E4A1A000E4B1A800E1A
:103230004C1A47C039F048C03AF049C03BF04AC088
:103240003CF04BC03DF04CC03EF0D5EC0DF039C029
:1032500047F03AC048F03BC049F000D01200C282AB
:1032600000D0C2B201D001D0FCD700D0000E126E47
:10327000000E116EC4CF11F0126A1150126E116A55
:103280001150C310116E1250126E11C00FF012C007
:1032900010F000D0120017C00FF018C010F0116A23
:1032A0001A6E8E0E126E1A501B6E000E136E1B508D
:1032B000EBEC13F00FC017F010C018F011C019F0AC
:1032C00000D012007F0E111410100F10D8B401D0CE
:1032D00001D006D0000E0F1A000E101A800E111A1F
:1032E0000FC00FF010C010F011C011F01200C29406
:1032F000C296C298C29AC29CF30EC116FC0EC116A9
:10330000C08EC050C70B1009C06EC050F80B020928
:10331000C06EC2801200A69EA69CA6840FC0A9FF04
:1033200010C0A8FFF29E550EA76EAA0EA76EA68229
:10333000F28EA6941200000EB06E810EAF6EAC98A5
:10334000B896AC84AB8EAC8AAB889D8A1200000123
:10335000B86BB76BB66B000EF86E00011DEF08F08E
:1033600000D0ACA201D001D0FCD751C0ADFF1200FB
:103370000FC0A9FFA69EA69CA680A85000D0120050
:020000040030CA
:06000100221F3C00BF813C
:060008000FC00FE00F40E5
:00000001FF
