:0400000048EF00F0D5
:10000800FACF01F0FBCF02F0E9CF03F0EACF04F01A
:10001800E1CF05F0E2CF06F0D9CF07F0DACF08F04C
:10002800F3CF09F0F4CF0AF0F6CF0BF0F7CF0CF0CE
:10003800F8CF0DF0F5CF0EF09EAA01D001D007D071
:100048009DAA01D001D003D0AECFB6F000D00EC02B
:10005800F5FF0DC0F8FF0CC0F7FF0BC0F6FF0AC094
:10006800F4FF09C0F3FF08C0DAFF07C0D9FF06C0D4
:10007800E2FF05C0E1FF04C0EAFF03C0E9FF02C0D8
:0C008800FBFF01C0FAFF1100A0EF17F011
:1010000000803F72313FFE753E58633D951D3CC5E3
:10101000AE3A79213994803793A7355615340000BC
:101020000000803FF0FFBEE2A93E8376BEAE2B3EBD
:101030003CC3BDD2133D78D3BB0017EC17F094EC42
:1010400017F080EC17F00001000E106E0001A70EE3
:101050000F6E00019C6F020E116E00019C51A2ECFC
:101060000AF000019C6F010E00010001A36F000156
:101070009C5100D0000E00010001616FC80E0001FC
:10108000606F37EC14F060C09DF061C09EF062C0EC
:101090009FF000019C6F420E4C6E00019C519DC060
:1010A0004DF09EC04EF09FC04FF0C8EC13F04CC006
:1010B000A0F04DC0A1F04EC0A2F0A0C08DF0A1C024
:1010C0008EF0A2C08FF0E3EC12F08DC0A4F08EC0C1
:1010D000A5F08FC0A6F0000E416E000E426EC00E4D
:1010E000436EB0C03EF0B1C03FF0B2C040F0D9ECAA
:1010F0000BF03EC04CF03FC04DF040C04EF0A4C0DD
:101100004FF0A5C050F0A6C051F0FAEC14F0D8A0F2
:1011100001D001D002D08A8A17D0A4C04CF0A5C05B
:101120004DF0A6C04EF0B0C04FF0B1C050F0B2C00C
:1011300051F0FAEC14F0D8B001D001D002D000F098
:1011400003D08A9A01D000D000010001B651D8B472
:1011500001D001D0ACD080D07FD000019C6F040EB4
:1011600000010001A36F00019C5198D000019C6F09
:10117000010E00010001A36F00019C518FD00001FE
:101180009C6F030E00010001A36F00019C5186D0EB
:1011900000019C6F020E00010001A36F00019C5131
:1011A0007DD00001000E106E0001A70E0F6E000131
:1011B0009C6F060E116E00019C51A2EC0AF06ED0DD
:1011C0000001000E106E0001A70E0F6E00019C6F53
:1011D000020E116E00019C51A2EC0AF05FD00001DA
:1011E000000E106E0001A70E0F6E00019C6F010E25
:1011F000116E00019C51A2EC0AF050D00001000ECB
:10120000106E0001A70E0F6E00019C6F050E116E8F
:1012100000019C51A2EC0AF041D00001000E106EBA
:101220000001A70E0F6E00019C6F040E116E0001ED
:101230009C51A2EC0AF032D00001000E106E0001A9
:10124000A70E0F6E00019C6F030E116E00019C51E2
:10125000A2EC0AF023D022D000010001B651310ADD
:10126000D8B47BD7030AD8B48AD7010AD8B490D7A8
:10127000070AD8B47BD7010AD8B493D7030AD8B4E5
:101280009FD7010AD8B4ABD70F0AD8B4B7D7010A91
:10129000D8B4C3D7780AD8B4CFD700D000019C6F98
:1012A000000E00010001B66F00019C5100D0A3C0E8
:1012B00046F0B3C047F0A4C048F0A5C049F0A6C0AE
:1012C0004AF057EC13F0D6D6D5D648EF00F07F0E93
:1012D0000001000174150001731100017211D8A4FE
:1012E00001D001D00ED0000E00010001726F800EFF
:1012F00000010001736F3F0E00010001746F21D1E6
:1013000020D1720E4C6E310E4D6E440E4E6E72C078
:101310004FF073C050F074C051F0FAEC14F0D8B034
:1013200001D001D015D0000E00010001B56F220ED2
:101330000001B46FFF0E00010001726F7F0E00010B
:101340000001736F7F0E00010001746FFAD0F9D0B5
:1013500072C04CF073C04DF074C04EF0490E4F6E29
:101360003A0E506EC40E516EFAEC14F0D8B001D0A3
:1013700001D015D0000E00010001B56F220E000152
:10138000B46F000E00010001726F000E0001000139
:10139000736F000E00010001746FD3D0D2D0000132
:1013A00000017451800A800F07E1000E0001735D97
:1013B00003E1000E0001725DD8A001D002D0010E41
:1013C00001D0000E000100017A6F000100017A5186
:1013D000D8B401D001D00FD072C00FF073C010F09C
:1013E00074C011F06BEC17F00FC072F010C073F006
:1013F00011C074F000D00001000E2E6E0001720EBC
:101400002D6EAA0E2F6EB80E306E3F0E316EF8ECB8
:1014100016F072C063F073C064F074C065F034EC11
:1014200010F063C075F064C076F065C077F075C0E9
:101430002DF076C02EF077C02FF0CEEC10F02DC03E
:1014400078F02EC079F00001000E00010001616FFC
:101450000001720E0001606F78C017F079C018F0BB
:1014600075EC16F017C062F018C063F019C064F094
:10147000D9EC16F072C060F073C061F074C062F015
:10148000100E00010001646F000E0001636F000E7A
:1014900000010001666F090E0001656FF5EC11F0A7
:1014A00060C06AF061C06BF062C06CF078C06DF033
:1014B00079C06EF001EC0EF06AC072F06BC073F090
:1014C0006CC074F0000100017A51D8B401D001D091
:1014D00032D0FF0E0001000172197F0ED8B47319CB
:1014E0007F0ED8B47419D8A401D001D00ED0000E4C
:1014F00000010001726F000E00010001736F000E09
:1015000000010001746F1DD01CD0000E2D6E800EE6
:101510002E6E3F0E2F6E72C030F073C031F074C06B
:1015200032F066EC11F02DC072F02EC073F02FC0B7
:1015300074F007D006D072C072F073C073F074C03C
:1015400074F0120021D120EE0CF00F50D92610506B
:10155000DA2211C0DFFF20EE06F00F50D92610501E
:10156000DA22000EDE6E000EDE6E410EDD6EDD5202
:1015700020EE03F00F50D9261050DA22000EDE6E56
:10158000C00EDE6E400EDD6EDD5220EE09F00F5013
:10159000D9261050DA22000EDE6EBC0EDE6E410E31
:1015A000DD6EDD5205D120EE0CF00F50D926105023
:1015B000DA2211C0DFFF20EE06F00F50D9261050BE
:1015C000DA22000EDE6E000EDE6E410EDD6EDD52A2
:1015D00020EE03F00F50D9261050DA22000EDE6EF6
:1015E000D00EDE6E400EDD6EDD5220EE09F00F50A3
:1015F000D9261050DA22000EDE6EC80EDE6E410EC5
:10160000DD6EDD52D5D020EE0CF00F50D9261050F3
:10161000DA2211C0DFFF20EE06F00F50D92610505D
:10162000DA229A0EDE6EF90EDE6E400EDD6EDD52AF
:1016300020EE03F00F50D9261050DA22000EDE6E95
:10164000B00EDE6E400EDD6EDD5220EE09F00F5062
:10165000D9261050DA22000EDE6ED00EDE6E410E5C
:10166000DD6EDD52A5D020EE0CF00F50D9261050C3
:10167000DA2211C0DFFF20EE06F00F50D9261050FD
:10168000DA22000EDE6E080EDE6E410EDD6EDD52D9
:1016900020EE03F00F50D9261050DA22000EDE6E35
:1016A000D00EDE6E400EDD6EDD5220EE09F00F50E2
:1016B000D9261050DA22000EDE6EDC0EDE6E410EF0
:1016C000DD6EDD5275D020EE0CF00F50D926105093
:1016D000DA2211C0DFFF20EE06F00F50D92610509D
:1016E000DA22CD0EDE6EFC0EDE6E400EDD6EDD52B9
:1016F00020EE03F00F50D9261050DA22000EDE6ED5
:10170000C00EDE6E400EDD6EDD5220EE09F00F5091
:10171000D9261050DA22000EDE6EB80EDE6E410EB3
:10172000DD6EDD5245D020EE0CF00F50D926105062
:10173000DA2211C0DFFF20EE06F00F50D92610503C
:10174000DA22000EDE6EE00EDE6E400EDD6EDD5241
:1017500020EE03F00F50D9261050DA22000EDE6E74
:10176000C00EDE6E400EDD6EDD5220EE09F00F5031
:10177000D9261050DA22000EDE6EF00EDE6E410E1B
:10178000DD6EDD5215D014D01150010AD8B4DBD66D
:10179000030AD8B408D7010AD8B435D7070AD8B491
:1017A00062D7010AD8B48FD7030AD8B4BCD700D007
:1017B00012000F0E446E3EC045F03FC046F040C0E0
:1017C00047F04428486E04D0D8904732463245321C
:1017D000482EFAD745504B6E0F0E446E41C045F06F
:1017E00042C046F043C047F04428486E04D0D89029
:1017F000473246324532482EFAD745504A6E4B5052
:10180000D8B401D001D00FD04A504B6001D001D0E4
:1018100011D04B5000084A24446E190E445CD8A0E5
:1018200001D001D007D041C03EF042C03FF043C0DC
:1018300040F0DBD04A50D8B401D001D00FD04B508B
:101840004A6001D001D011D04A5000084B24446EA8
:10185000190E445CD8A001D001D007D03EC03EF0A4
:101860003FC03FF040C040F0C0D0446E060E496E0D
:10187000445040AE01D001D002D0498E00D043AEDA
:1018800001D001D001D0498C3F8EFF0E3E16FF0ED5
:101890003F16000E4016428EFF0E4116FF0E4216F6
:1018A000000E43164A504B6001D001D023D000D027
:1018B000D8904136423643364A064A504B18D8B47F
:1018C00001D001D010D049064950070BD8A401D04F
:1018D00001D0EED708D007D006D0D89040323F32A2
:1018E0003E324B2A00D04A504B6201D001D0F5D78E
:1018F00029D028D04B504A6001D001D023D000D04D
:10190000D8903E363F3640364B064A504B18D8B436
:1019100001D001D010D049064950070BD8A401D0FE
:1019200001D0EED708D007D006D0D890433242324B
:1019300041324A2A00D04A504B6201D001D0F5D73B
:1019400001D000D049AE01D001D00CD0FF0E3E1A1C
:10195000FF0E3F1AFF0E401A010E3E26000E3F22D8
:10196000000E402249AC01D001D00DD0FF0E411A2B
:10197000FF0E421AFF0E431A010E4126000E4222AC
:10198000000E432200D0446E000E496E44503E507B
:1019900041263F5042224050432243AE01D001D065
:1019A00011D0FF0E411AFF0E421AFF0E431A010E0C
:1019B0004126000E4222000E4322446E010E496E63
:1019C000445000D041C00FF042C010F043C011F0AD
:1019D0004BC012F049C013F06CEC12F00FC03EF097
:1019E00010C03FF011C040F000D012000001816F24
:1019F000000E00010001886F000181517F0E00017F
:101A000000017D1500017C1100017B11D8A401D0DB
:101A100001D027D0000E4C6E000E4D6E000E4E6EA3
:101A20007EC04FF07FC050F080C051F0FAEC14F04F
:101A3000D8A001D001D007D0000E00010001B56F81
:101A4000210E0001B46F000E000100017B6F000E3B
:101A5000000100017C6F000E000100017D6FD0D0FD
:101A6000CFD07F0E00010001801500017F11000121
:101A70007E11D8A401D001D00ED0000E00010001CB
:101A80007B6F800E000100017C6F3F0E00010001A2
:101A90007D6FB6D0B5D0000100017D51800A800F66
:101AA00007E1000E00017C5D03E1000E00017B5D9B
:101AB000D8B001D001D057D07EC02DF07FC02EF01D
:101AC00080C02FF0CEEC10F02DC089F02EC08AF02F
:101AD0002FC08BF030C08CF089C017F08AC018F08E
:101AE0008BC019F08CC01AF03EEC16F0000100011A
:101AF0008051191809E1000100017F51181804E113
:101B0000000100017E511718D8B401D001D015D0C2
:101B1000000E00010001B56F210E0001B46F000E30
:101B2000000100017B6F000E000100017C6F000EC0
:101B3000000100017D6F64D063D000010001895174
:101B4000010B00010001886F7BC00FF07CC010F01A
:101B50007DC011F06BEC17F00FC07BF010C07CF073
:101B600011C07DF000D07BC06AF07CC06BF07DC0FE
:101B70006CF0D3EC0EF06AC082F06BC083F06CC0E6
:101B800084F082C01CF083C01DF084C01EF07EC0B3
:101B90001FF07FC020F080C021F095EC0FF01CC03A
:101BA00085F01DC086F01EC087F085C072F086C02B
:101BB00073F087C074F067EC09F072C07BF073C0FB
:101BC0007CF074C07DF0000100018851D8B401D0D0
:101BD00001D010D07BC00FF07CC010F07DC011F0A0
:101BE0006BEC17F00FC07BF010C07CF011C07DF0E3
:101BF00007D006D07BC07BF07CC07CF07DC07DF040
:101C000012007F0E000100016C1500016B11000134
:101C10006A11D8A401D001D00ED0000E000100013D
:101C20006A6F000E000100016B6F000E00010001E1
:101C30006C6FB8D0B7D0000100016C517F0B000170
:101C40006F6FD89000016F350001706F0001716BEC
:101C50000001713700017051000100016D27000182
:101C60007151000100016E23000100016B35E8365F
:101C7000010B00016F6F00016F51000100016D2722
:101C8000000E00016E23000100016EAF01D001D0F3
:101C900016D0000E00010001B56F220E0001B46FD6
:101CA000000E000100016A6F000E000100016B6F61
:101CB000000E000100016C6F75D074D06CD0000173
:101CC00000016E51800A7F0F000ED8B46D5DD8A060
:101CD00001D001D036D0000E00010001B56F220EF8
:101CE0000001B46F000100016C51800A800F07E110
:101CF000000E00016B5D03E1000E00016A5DD8B0CB
:101D000001D001D00FD0FF0E000100016A6F7F0EDD
:101D1000000100016B6FFF0E000100016C6F42D0EB
:101D200041D039D0FF0E000100016A6F7F0E000123
:101D300000016B6F7F0E000100016C6F33D032D059
:101D40002AD0000100016E3500016E310001706F74
:101D5000000100016D3100016F6F000100016C5145
:101D600000016F19800B6F19000100016C6F6DC0CD
:101D70006FF0010E00016F1700016F336F33000128
:101D800000016B5100016F197F0B6F1900010001F9
:101D90006B6F01D000D06AC06AF06BC06BF06CC092
:101DA0006CF000D01200000100016C51800A800F1D
:101DB00007E1000E00016B5D03E1000E00016A5DAA
:101DC000D8B001D001D015D0000E00010001B56FD0
:101DD000210E0001B46F000E000100016A6F000EB9
:101DE000000100016B6F000E000100016C6F9CD0C0
:101DF0009BD07F0E000100016C1500016B110001EA
:101E00006A11D8A401D001D015D0000E0001000144
:101E1000B56F220E0001B46F000E000100016A6F61
:101E2000000E000100016B6F000E000100016C6FDD
:101E30007BD07AD0000E1F6E000E206E400E216EF9
:101E40000001000E136E00016D0E126E6AC00FF0DD
:101E50006BC010F06CC011F0A8EC15F00FC01CF0B6
:101E600010C01DF011C01EF095EC0FF01CC03EF02C
:101E70001DC03FF01EC040F0000E416E800E426E4D
:101E8000BF0E436ED9EC0BF03EC06AF03FC06BF062
:101E900040C06CF0000100016D07D8A06E076AC059
:101EA00060F06BC061F06CC062F0100E00010001C8
:101EB000646F1E0E0001636F000E00010001666F6B
:101EC000080E0001656FF5EC11F060C06AF061C0AA
:101ED0006BF062C06CF0720E1F6E310E206E3F0E02
:101EE000216E6DC017F06EC018F075EC16F017C0BB
:101EF0001CF018C01DF019C01EF095EC0FF01CC0AE
:101F00003EF01DC03FF01EC040F06AC041F06BC003
:101F100042F06CC043F0D9EC0BF03EC06AF03FC019
:101F20006BF040C06CF000D012000F0E226E1CC08F
:101F300023F01DC024F01EC025F02228266E04D0F8
:101F4000D890253224322332262EFAD72350276EFA
:101F5000276601D001D008D0000E1C6E000E1D6E49
:101F6000000E1E6E80D07FD00F0E226E1FC023F099
:101F700020C024F021C025F02228266E04D0D8905D
:101F8000253224322332262EFAD723502C6E2C668B
:101F900001D001D008D0000E1C6E000E1D6E000E88
:101FA0001E6E61D060D02C507B0F27261EC02CF0F7
:101FB00021502C1A800E2C161D8E208EFF0E1F16FF
:101FC000FF0E2016000E2116000E286E000E296E40
:101FD000000E2A6E226E070E2B6E225000D01CA01F
:101FE00001D001D007D01F5028262050292221508F
:101FF0002A2200D0D8901E321D321C32D8901F36B3
:10200000203621362B2EEBD700D0226E090E2B6EF8
:10201000225000D01CA001D001D007D01F5028268C
:102020002050292221502A2200D0D8901E321D3261
:102030001C32D8902A32293228322B2EEBD700D0EE
:1020400028C00FF029C010F02AC011F027C012F0EC
:102050002CC013F06CEC12F00FC01CF010C01DF07F
:1020600011C01EF000D0120063C00FF064C010F069
:1020700065C011F00001000E136E0001690E126EB2
:10208000A8EC15F0000100016AAF01D001D02DD0FD
:10209000000100016551800A800F07E1000E000178
:1020A000645D03E1000E0001635DD8B001D001D092
:1020B0000ED0000E00010001636F800E00010001D0
:1020C000646FBF0E00010001656F67D066D0000E1F
:1020D00000010001636F000E00010001646F000E3B
:1020E00000010001656F59D058D0150E00010001A4
:1020F000695D000E00016A59D8A001D001D007D057
:1021000063C063F064C064F065C065F046D063C02E
:102110002DF064C02EF065C02FF0CEEC10F02DC075
:102120003CF02EC03DF02FC03EF030C03FF0F4EC4C
:1021300015F03CC066F03DC067F03EC068F063C07B
:102140004CF064C04DF065C04EF066C04FF067C003
:1021500050F068C051F0FAEC14F0D8B001D001D0C2
:1021600016D066C03EF067C03FF068C040F0000E79
:10217000416E800E426EBF0E436ED9EC0BF03EC036
:1021800063F03FC064F040C065F007D006D066C081
:1021900063F067C064F068C065F012000F0E316E26
:1021A0002DC032F02EC033F02FC034F03128356E00
:1021B00004D0D890343233323232352EFAD73250FE
:1021C0003B6E3B6601D001D00AD0000E2D6E000E92
:1021D0002E6E000E2F6E000E306E77D076D0170E5A
:1021E000316E2DC032F02EC033F02FC034F03128C4
:1021F000356E04D0D890343233323232352EFAD79D
:102200003250366E2E8EFF0E2D16FF0E2E16000E3D
:102210002F162D50376E2E50386E2F50396E3A6A69
:102220008E0E3B5E3BAE01D001D01BD03B50800AEE
:102230008F0FD8B001D001D00BD0000E2D6E000E44
:102240002E6E000E2F6E000E306E3FD03ED000D0AE
:10225000D8903A323932383237323B3EF9D71ED035
:102260001DD0170E3B6401D001D012D0000E2D6E90
:10227000000E2E6E000E2F6E000E306E26D025D072
:1022800007D0D8903736383639363A363B0600D044
:102290003B6601D001D0F5D701D000D03650D8B47C
:1022A00001D001D009D03A1E391E381E376C000EFD
:1022B000382239223A2200D037C02DF038C02EF013
:1022C00039C02FF03AC030F000D012000F0E336E3C
:1022D0002DC034F02EC035F02FC036F03328376EC5
:1022E00004D0D890363235323432372EFAD73450C3
:1022F0003C6E3C6601D001D008D0000E2D6E000E61
:102300002E6E000E2F6E70D06FD00F0E336E30C059
:1023100034F031C035F032C036F03328376E04D097
:10232000D890363235323432372EFAD734503D6EAB
:102330003D6601D001D008D0000E2D6E000E2E6E2D
:10234000000E2F6E51D050D0000E396E000E3A6E36
:10235000000E3B6E3D50890F3C5E2FC03DF0325069
:102360003D1A800E3D162E8EFF0E2D16FF0E2E16D8
:10237000000E2F16318EFF0E3016FF0E3116000E96
:102380003216336E180E386E3350D89039363A36CE
:102390003B3630502D5C31502E5832502F58D8A03B
:1023A00001D001D007D030502D5E31502E5A32501E
:1023B0002F5A3980D8902D362E362F36382EE5D725
:1023C00000D039C00FF03AC010F03BC011F03CC053
:1023D00012F03DC013F06CEC12F00FC02DF010C0E5
:1023E0002EF011C02FF000D0120000010001655145
:1023F000030DF3500001000163254C6EE86AF3BE43
:10240000E8680001000164214D6E4CC0F6FF4DC02C
:10241000F7FF0900F5CF4EF00900F5CF4FF00900A6
:10242000F5CF50F04EC067F04FC068F050C069F073
:1024300044D067C01FF068C020F069C021F060C0C0
:102440001CF061C01DF062C01EF095EC0FF01CC0C6
:102450003EF01DC03FF01EC040F0000100016507C6
:10246000D8A0660700016551030DF350000100017B
:1024700063254C6EE86AF3BEE86800010001642140
:102480004D6E4CC0F6FF4DC0F7FF0900F5CF4EF082
:102490000900F5CF4FF00900F5CF50F04EC041F0E4
:1024A0004FC042F050C043F0D9EC0BF03EC067F093
:1024B0003FC068F040C069F000D0000100016651E3
:1024C0006511D8A401D001D0B4D767C060F068C04E
:1024D00061F069C062F012001250D8B401D001D08E
:1024E00008D00F5010101110D8A401D001D010D076
:1024F00000D0000E0F6E000E106E000E116E62D036
:1025000061D006D0122AD890113210320F3200D08A
:10251000000E0F14146E000E1014156EFE0E111422
:10252000166E145015101610D8A401D001D0EAD799
:102530000DD00CD0122A010E0F26000E1022000E14
:102540001122D890113210320F3200D0000E0F1429
:10255000146E000E1014156EFF0E1114166E14502A
:1025600015101610D8A401D001D0E4D707D006D09A
:102570001206D8900F361036113600D010AE01D0AA
:1025800001D0F6D712B001D001D002D0109E00D0F9
:10259000D89012321250166E156A146A14500F1227
:1025A00015501012165011121350D8B401D001D08A
:1025B00002D0118E00D00FC00FF010C010F011C06B
:1025C00011F000D01200000E306E7A0E316E440E03
:1025D000326E8DC02DF08EC02EF08FC02FF066ECC5
:1025E00011F02DC06AF02EC06BF02FC06CF0D3EC50
:1025F0000EF06AC093F06BC094F06CC095F0CD0EF5
:10260000416E5B0E426E3B0E436E190E1F6E960EB0
:10261000206E390E216E93C01CF094C01DF095C041
:102620001EF095EC0FF01CC03EF01DC03FF01EC028
:1026300040F0D9EC0BF03EC096F03FC097F040C0A0
:1026400098F0000E000100017E6F800E0001000175
:102650007F6FBF0E00010001806F96C07BF097C0B6
:102660007CF098C07DF0F6EC0CF07BC099F07CC05B
:102670009AF07DC09BF099C03EF09AC03FF09BC09D
:1026800040F0940E416E880E426EC30E436ED9EC3C
:102690000BF03EC090F03FC091F040C092F090C06F
:1026A0008DF091C08EF092C08FF000D012004B6E72
:1026B000000E4C6E4B5081CF4CF04B6E000E4D6EA9
:1026C0004B5080CF4DF046C045F0A9EC17F04CC000
:1026D00045F0A9EC17F04DC045F0A9EC17F04B6E92
:1026E000630E456E4B50A9EC17F0000E1F6E200EC6
:1026F000206E410E216E48C01CF049C01DF04AC03A
:102700001EF095EC0FF01CC02DF01DC02EF01EC069
:102710002FF0CEEC10F02DC03CF02EC03DF0000E9E
:102720003F6E0A0E3E6E9CEC14F03C50456EA9ECD8
:1027300017F0000E1F6E200E206E410E216E48C055
:102740001CF049C01DF04AC01EF095EC0FF01CC0F3
:102750002DF01DC02EF01EC02FF0CEEC10F02DC0BD
:102760003CF02EC03DF0000E3F6E0A0E3E6E54EC63
:1027700015F03C50456EA9EC17F047C045F0A9ECA8
:1027800017F04B6E0A0E456E4B50A9EC17F0120075
:102790004C50410AD8A401D001D037D0000E416E70
:1027A000800E426EBF0E436E4DC030F04EC031F011
:1027B0004FC032F0000E2D6E800E2E6E440E2F6E26
:1027C00066EC11F02DC03EF02EC03FF02FC040F05F
:1027D000D9EC0BF03EC060F03FC061F040C062F049
:1027E000000E2D6E7A0E2E6E440E2F6E60C030F0ED
:1027F00061C031F062C032F066EC11F02DC063F0C0
:102800002EC064F02FC065F02AD04C50420AD8A4E4
:1028100001D001D024D0000E1F6EA00E206E400EFD
:10282000216E4DC01CF04EC01DF04FC01EF095EC47
:102830000FF01CC02DF01DC02EF01EC02FF02B0E6F
:10284000306E240E316E400E326E66EC11F02DC0EB
:1028500063F02EC064F02FC065F001D000D063C0DB
:102860004CF064C04DF065C04EF000D01200000E78
:1028700000010001676F000E00010001686F000E8B
:1028800000010001696F0001636F000E000100018B
:10289000666F000163511AD00001000E4D6E0001F9
:1028A000670E4C6E4FEC17F00FC017F010C018F009
:1028B00075EC16F017C04EF018C04FF019C050F06C
:1028C0009BEC16F000010001662B00D00001000116
:1028D00066510001636F646B00016451800A00015E
:1028E000656F000160510001635D000100016151ED
:1028F000800A00016559D8A001D001D0CDD700D001
:102900000001000E3F6E0001670E3E6E60C017F0C2
:1029100061C018F075EC16F017C040F018C041F017
:1029200019C042F0BAEC16F067C060F068C061F000
:1029300069C062F000D01200406E000E426E40503E
:102940003FAE01D001D009D03E6C3F1ED8B03F2A27
:10295000406E010E426E405000D03DAE01D001D01D
:1029600007D03C6C3D1ED8B03D2A010E421A00D063
:10297000000E446E000E436E3F503E10D8B401D09E
:1029800001D028D0406E010E416E405005D0D89045
:102990003E363F36412A00D03FAE01D001D0F7D7B6
:1029A00001D000D0D890433644363E503C5C3F5076
:1029B0003D58D8A001D001D006D03E503C5E3F50DB
:1029C0003D5A438000D0D8903F323E32412EEAD764
:1029D00001D000D04250D8B401D001D005D0436C12
:1029E000441ED8B0442A00D043C03CF044C03DF05F
:1029F00000D012004EAE01D001D01BD04CC060F010
:102A00004DC061F04EC062F00001601F611F621F87
:102A1000602B000E61236223000E000160254C6EC6
:102A2000000E000161214D6E800E000162214E6E8C
:102A300000D051AE01D001D01BD04FC060F050C0CB
:102A400061F051C062F00001601F611F621F602BC6
:102A5000000E61236223000E000160254F6E000E00
:102A600000016121506E800E00016221516E00D084
:102A7000000E4C1A000E4D1A800E4E1A000E4F1A00
:102A8000000E501A800E511A4F504C5C50504D5849
:102A900051504E58D8B001D001D002D0D89003D0B8
:102AA000D88001D000D01200406E000E426E40501F
:102AB0003DAE01D001D009D03C6C3D1ED8B03D2ABE
:102AC000406E010E426E405000D03FAE01D001D0AA
:102AD00005D03E6C3F1ED8B03F2A00D03F503E107C
:102AE000D8B401D001D024D0406E010E416E4050C8
:102AF00005D0D8903E363F36412A00D03FAE01D0B7
:102B000001D0F7D701D000D03E503C5C3F503D583B
:102B1000D8A001D001D005D03E503C5E3F503D5A78
:102B200000D0D8903F323E32412EEED701D000D0B7
:102B30004250D8B401D001D005D03C6C3D1ED8B075
:102B40003D2A00D03CC03CF03DC03DF000D012001A
:102B50007F0E111410100F10D8A401D001D010D086
:102B600012C0D9FF13C0DAFF000EDE6E000EDD6E5C
:102B7000000E0F6E000E106E000E116E34D033D0AA
:102B800011507F0B146ED8901434156E166A1636D9
:102B900012C0D9FF13C0DAFF15C0DEFF16C0DDFF7B
:102BA0001034E836010B146E145012C0D9FF13C054
:102BB000DAFFDE12000EDD1212C0D9FF13C0DAFFF9
:102BC000820EDE26FF0EDD22118011821184118615
:102BD0001188118A119C109E0FC00FF010C010F0C8
:102BE00011C011F000D01200406E000E456E405032
:102BF000406E8E0E446E40503FAE01D001D015D0D5
:102C00003F1E3E1E3D1E3C6C000E3D223E223F22DA
:102C1000406E010E456E405008D007D0D8903F322C
:102C20003E323D323C32442A00D0000E3C14406E0D
:102C3000000E3D14416E000E3E14426EFF0E3F1416
:102C4000436E4350401041104210D8A401D001D02F
:102C5000E5D700D03CC00FF03DC010F03EC011F0F1
:102C600044C012F045C013F06CEC12F00FC03CF001
:102C700010C03DF011C03EF000D012001B6E8E0E51
:102C80001F6E1B5007D0D8901A32193218321732E3
:102C90001F2A00D0000E17141B6E000E18141C6E95
:102CA000000E19141D6EFF0E1A141E6E1E501B10FE
:102CB0001C101D10D8A401D001D0E5D700D017C03A
:102CC0000FF018C010F019C011F01FC012F01B6EE9
:102CD000000E136E1B506CEC12F00FC017F010C0FA
:102CE00018F011C019F000D012001A6E000E1B6E01
:102CF0001A5018AE01D001D009D0176C181ED8B0E8
:102D0000182A1A6E010E1B6E1A5000D017C00FF051
:102D100018C010F0116A1A6E8E0E126E1A501BC077
:102D200013F06CEC12F00FC017F010C018F011C0C7
:102D300019F000D012004CC0D9FF4DC0DAFFDECF31
:102D40003EF0DECF3FF0DDCF40F04EC041F04FC04F
:102D500042F050C043F0D9EC0BF04CC0D9FF4DC04D
:102D6000DAFF3EC0DEFF3FC0DEFF40C0DDFFDD52C8
:102D700000D012003EC0D9FF3FC0DAFFDECF2DF0F9
:102D8000DECF2EF0DDCF2FF040C030F041C031F06B
:102D900042C032F066EC11F03EC0D9FF3FC0DAFF0E
:102DA0002DC0DEFF2EC0DEFF2FC0DDFFDD5200D0C4
:102DB000120060C0D9FF61C0DAFFDECF4CF0DECF79
:102DC0004DF0DDCF4EF062C04FF063C050F064C0F4
:102DD00051F033EC17F060C0D9FF61C0DAFF4CC08E
:102DE000DEFF4DC0DEFF4EC0DDFFDD5200D0120021
:102DF0002DC0D9FF2EC0DAFFDECF1CF0DECF1DF0D4
:102E0000DDCF1EF02FC01FF030C020F031C021F008
:102E100095EC0FF02DC0D9FF2EC0DAFF1CC0DEFFED
:102E20001DC0DEFF1EC0DDFFDD5200D01200000E0F
:102E3000936E000E8A6E928092820F010F0138917C
:102E40000F010F013893949C948E0F010F013A9F4C
:102E5000000E0F010F01386F92820F010F013883AE
:102E6000F28CF28E1200000E4F1A000E501A800ED5
:102E7000511A4CC03EF04DC03FF04EC040F04FC024
:102E800041F050C042F051C043F0D9EC0BF03EC0CD
:102E90004CF03FC04DF040C04EF000D01200C28256
:102EA00000D0C2B201D001D0FCD700D0000E126E0B
:102EB000000E116EC4CF11F0126A1150126E116A19
:102EC0001150C310116E1250126E11C00FF012C0CB
:102ED00010F000D012007F0E111410100F10D8B493
:102EE00001D001D006D0000E0F1A000E101A800E6D
:102EF000111A0FC00FF010C010F011C011F0120025
:102F0000C294C296C298C29AC29CF30EC116FC0E1D
:102F1000C116C08EC050C70B1009C06EC050F80B50
:102F20000209C06EC2801200000EB06E810EAF6E3C
:102F3000AC98B896AC84AB8EAC8AAB889D8A1200F4
:102F40000001B66BB56BB46B000EF86E00011DEF9F
:102F500008F000D0ACA201D001D0FCD745C0ADFF35
:022F600012005D
:020000040030CA
:06000100221F3C00BF813C
:060008000FC00FE00F40E5
:00000001FF
